{
  "contractName": "Casino",
  "abi": [
    {
      "anonymous": false,
      "inputs": [
        {
          "indexed": false,
          "internalType": "address",
          "name": "player",
          "type": "address"
        },
        {
          "indexed": false,
          "internalType": "string[]",
          "name": "prizes",
          "type": "string[]"
        },
        {
          "indexed": false,
          "internalType": "uint256",
          "name": "wonPrizeIndex",
          "type": "uint256"
        }
      ],
      "name": "WheelSpin",
      "type": "event"
    },
    {
      "inputs": [],
      "name": "getPrizes",
      "outputs": [
        {
          "internalType": "string[]",
          "name": "",
          "type": "string[]"
        }
      ],
      "stateMutability": "view",
      "type": "function"
    },
    {
      "inputs": [],
      "name": "getProfit",
      "outputs": [
        {
          "internalType": "uint256",
          "name": "",
          "type": "uint256"
        }
      ],
      "stateMutability": "view",
      "type": "function"
    },
    {
      "inputs": [],
      "name": "spinWheel",
      "outputs": [],
      "stateMutability": "payable",
      "type": "function"
    },
    {
      "stateMutability": "payable",
      "type": "receive"
    }
  ],
  "bytecode": "0x60806040526002805534801561001457600080fd5b5033600160006101000a81548173ffffffffffffffffffffffffffffffffffffffff021916908373ffffffffffffffffffffffffffffffffffffffff160217905550610be9806100656000396000f3fe6080604052600436106100595760003560e01c806312065fe01461016d5780632770c89514610198578063481c6a75146101c35780635d495aea146101ee5780638b5b9ccc14610205578063f71d96cb1461023057610168565b366101685767016345785d8a0000341461007257600080fd5b600160009054906101000a900473ffffffffffffffffffffffffffffffffffffffff1673ffffffffffffffffffffffffffffffffffffffff163373ffffffffffffffffffffffffffffffffffffffff161415610103576040517f08c379a00000000000000000000000000000000000000000000000000000000081526004016100fa90610956565b60405180910390fd5b6000339080600181540180825580915050600190039060005260206000200160009091909190916101000a81548173ffffffffffffffffffffffffffffffffffffffff021916908373ffffffffffffffffffffffffffffffffffffffff160217905550005b600080fd5b34801561017957600080fd5b5061018261026d565b60405161018f9190610976565b60405180910390f35b3480156101a457600080fd5b506101ad6102cf565b6040516101ba9190610976565b60405180910390f35b3480156101cf57600080fd5b506101d86102d5565b6040516101e591906108d5565b60405180910390f35b3480156101fa57600080fd5b506102036102fb565b005b34801561021157600080fd5b5061021a6105c0565b6040516102279190610934565b60405180910390f35b34801561023c57600080fd5b5061025760048036038101906102529190610783565b61064e565b60405161026491906108f0565b60405180910390f35b6000600160009054906101000a900473ffffffffffffffffffffffffffffffffffffffff1673ffffffffffffffffffffffffffffffffffffffff163373ffffffffffffffffffffffffffffffffffffffff16146102c957600080fd5b47905090565b60025481565b600160009054906101000a900473ffffffffffffffffffffffffffffffffffffffff1681565b600254600080549050101561036557600160009054906101000a900473ffffffffffffffffffffffffffffffffffffffff1673ffffffffffffffffffffffffffffffffffffffff163373ffffffffffffffffffffffffffffffffffffffff161461036457600080fd5b5b600254600080549050101561037957600080fd5b600061038361068d565b9050600080600080549050836103999190610abe565b9050600081815481106103d5577f4e487b7100000000000000000000000000000000000000000000000000000000600052603260045260246000fd5b9060005260206000200160009054906101000a900473ffffffffffffffffffffffffffffffffffffffff16915060006064600a61041061026d565b61041a9190610a0c565b61042491906109db565b905060006064605a61043461026d565b61043e9190610a0c565b61044891906109db565b90508373ffffffffffffffffffffffffffffffffffffffff166108fc829081150290604051600060405180830381858888f19350505050158015610490573d6000803e3d6000fd5b50600160009054906101000a900473ffffffffffffffffffffffffffffffffffffffff1673ffffffffffffffffffffffffffffffffffffffff166108fc839081150290604051600060405180830381858888f193505050501580156104f9573d6000803e3d6000fd5b507f5bb928836cefd1eed4d5049d31f80e0a72ec1effa9220cb8dec2c40f5fc5bbfe848260405161052b92919061090b565b60405180910390a1600067ffffffffffffffff811115610574577f4e487b7100000000000000000000000000000000000000000000000000000000600052604160045260246000fd5b6040519080825280602002602001820160405280156105a25781602001602082028036833780820191505090505b50600090805190602001906105b89291906106c7565b505050505050565b6060600080548060200260200160405190810160405280929190818152602001828054801561064457602002820191906000526020600020905b8160009054906101000a900473ffffffffffffffffffffffffffffffffffffffff1673ffffffffffffffffffffffffffffffffffffffff16815260200190600101908083116105fa575b5050505050905090565b6000818154811061065e57600080fd5b906000526020600020016000915054906101000a900473ffffffffffffffffffffffffffffffffffffffff1681565b600044426000805490506040516020016106a993929190610898565b6040516020818303038152906040528051906020012060001c905090565b828054828255906000526020600020908101928215610740579160200282015b8281111561073f5782518260006101000a81548173ffffffffffffffffffffffffffffffffffffffff021916908373ffffffffffffffffffffffffffffffffffffffff160217905550916020019190600101906106e7565b5b50905061074d9190610751565b5090565b5b8082111561076a576000816000905550600101610752565b5090565b60008135905061077d81610b9c565b92915050565b60006020828403121561079557600080fd5b60006107a38482850161076e565b91505092915050565b60006107b883836107c4565b60208301905092915050565b6107cd81610a78565b82525050565b6107dc81610a78565b82525050565b6107eb81610a66565b82525050565b60006107fc826109a1565b61080681856109b9565b935061081183610991565b8060005b8381101561084257815161082988826107ac565b9750610834836109ac565b925050600181019050610815565b5085935050505092915050565b600061085c602c836109ca565b915061086782610b4d565b604082019050919050565b61087b81610aaa565b82525050565b61089261088d82610aaa565b610ab4565b82525050565b60006108a48286610881565b6020820191506108b48285610881565b6020820191506108c48284610881565b602082019150819050949350505050565b60006020820190506108ea60008301846107e2565b92915050565b600060208201905061090560008301846107d3565b92915050565b600060408201905061092060008301856107d3565b61092d6020830184610872565b9392505050565b6000602082019050818103600083015261094e81846107f1565b905092915050565b6000602082019050818103600083015261096f8161084f565b9050919050565b600060208201905061098b6000830184610872565b92915050565b6000819050602082019050919050565b600081519050919050565b6000602082019050919050565b600082825260208201905092915050565b600082825260208201905092915050565b60006109e682610aaa565b91506109f183610aaa565b925082610a0157610a00610b1e565b5b828204905092915050565b6000610a1782610aaa565b9150610a2283610aaa565b9250817fffffffffffffffffffffffffffffffffffffffffffffffffffffffffffffffff0483118215151615610a5b57610a5a610aef565b5b828202905092915050565b6000610a7182610a8a565b9050919050565b6000610a8382610a8a565b9050919050565b600073ffffffffffffffffffffffffffffffffffffffff82169050919050565b6000819050919050565b6000819050919050565b6000610ac982610aaa565b9150610ad483610aaa565b925082610ae457610ae3610b1e565b5b828206905092915050565b7f4e487b7100000000000000000000000000000000000000000000000000000000600052601160045260246000fd5b7f4e487b7100000000000000000000000000000000000000000000000000000000600052601260045260246000fd5b7f546865206d616e616765722063616e6e6f74207061637469636961746520696e60008201527f20746865204c6f74746572790000000000000000000000000000000000000000602082015250565b610ba581610aaa565b8114610bb057600080fd5b5056fea26469706673582212208742eb5fe280bf37cafd62c6d2412a3206730805337b37621caa2226961e3f9c64736f6c63430008010033",
  "immutableReferences": {},
  "source": "//SPDX-License-Identifier: GPL-3.0\npragma solidity >=0.5.0 <0.9.0;\n \n\ncontract Lottery{\n\n    // declaring the state variables\n    address payable[] public players; //dynamic array of type address payable\n    address public manager; \n    uint public minPlayers = 2;\n    // declaring the constructor\n    constructor(){\n        //Initializing the owner to the address that deploys the contract\n        manager = msg.sender; \n        \n        //Automatically add the manager to the lottery\n        //players.push(payable(manager));    \n    }\n\n    event PickWinnerEvent(address payable winner, uint prize);\n    \n    // declaring the receive() function that is necessary to receive ETH\n    receive() external payable{\n        // each player sends exactly 0.1 ETH \n        require(msg.value == 0.1 ether);\n        \n        //The manager cannot pacticiate in the Lottery\n        require(msg.sender != manager,\"The manager cannot pacticiate in the Lottery\");\n        \n        // appending the player to the players array\n        players.push(payable(msg.sender));\n    }\n    \n    // returning the contract's balance in wei\n    function getBalance() public view returns(uint){\n        // only the manager is allowed to call it\n        require(msg.sender == manager);\n        return address(this).balance;\n    }\n    \n    // helper function that returns a big random integer\n    function random() internal view returns(uint){\n       return uint(keccak256(abi.encodePacked(block.difficulty, block.timestamp, players.length)));\n    }\n    \n    \n    // selecting the winner\n    function pickWinner() public{\n      //Only the manager can pick a winner if there are at least 2 players in the lottery\n        if (players.length < minPlayers) {\n            require(msg.sender == manager);   \n        }\n        \n        //At least 2 players to pick the winner and end the game\n        require (players.length >= minPlayers);\n        \n        uint r = random();\n        address payable winner;\n        \n        // computing a random index of the array\n        uint index = r % players.length;\n    \n        winner = players[index]; // this is the winner\n        \n        uint managerFee = getBalance()*10/100;\n        uint winnerPrize = getBalance()*90/100;\n        \n        // transferring the 90% balance to the winner\n        winner.transfer(winnerPrize);\n        \n        payable(manager).transfer(managerFee);\n\n        emit PickWinnerEvent(winner, winnerPrize);\n\n        // resetting the lottery for the next round\n        players = new address payable[](0);\n    }\n    \n    function getPlayers() public view returns(address payable[] memory) {\n        return players;\n    }\n\n}",
  "sourcePath": "/Users/hoangdung/Documents/BLOCKCHAIN/lottery-react-solidity/contracts/Lottery.sol",
  "compiler": {
    "name": "solc",
    "version": "0.8.1+commit.df193b15.Emscripten.clang"
  },
  "schemaVersion": "3.4.1",
  "updatedAt": "2021-06-22T17:27:23.268Z",
  "networkType": "ethereum",
  "devdoc": {
    "kind": "dev",
    "methods": {},
    "version": 1
  },
  "userdoc": {
    "kind": "user",
    "methods": {},
    "version": 1
  }
}